{
  "contractName": "Ugovor",
  "abi": [
    {
      "constant": true,
      "inputs": [
        {
          "name": "",
          "type": "uint256"
        }
      ],
      "name": "osobe",
      "outputs": [
        {
          "name": "id",
          "type": "uint256"
        },
        {
          "name": "ime",
          "type": "string"
        }
      ],
      "payable": false,
      "stateMutability": "view",
      "type": "function",
      "signature": "0x16b3000b"
    },
    {
      "constant": true,
      "inputs": [
        {
          "name": "",
          "type": "uint256"
        }
      ],
      "name": "transakcije",
      "outputs": [
        {
          "name": "id",
          "type": "uint256"
        },
        {
          "name": "dateTime",
          "type": "string"
        },
        {
          "name": "posiljatelj",
          "type": "address"
        },
        {
          "name": "primatelj",
          "type": "address"
        },
        {
          "name": "iznos",
          "type": "uint256"
        }
      ],
      "payable": false,
      "stateMutability": "view",
      "type": "function",
      "signature": "0x3b3d4a2e"
    },
    {
      "constant": true,
      "inputs": [],
      "name": "racuniCount",
      "outputs": [
        {
          "name": "",
          "type": "uint256"
        }
      ],
      "payable": false,
      "stateMutability": "view",
      "type": "function",
      "signature": "0x4d823975"
    },
    {
      "constant": true,
      "inputs": [],
      "name": "osobeCount",
      "outputs": [
        {
          "name": "",
          "type": "uint256"
        }
      ],
      "payable": false,
      "stateMutability": "view",
      "type": "function",
      "signature": "0x8c81c979"
    },
    {
      "constant": true,
      "inputs": [],
      "name": "transakcijeCount",
      "outputs": [
        {
          "name": "",
          "type": "uint256"
        }
      ],
      "payable": false,
      "stateMutability": "view",
      "type": "function",
      "signature": "0xb284e35d"
    },
    {
      "constant": true,
      "inputs": [
        {
          "name": "",
          "type": "uint256"
        }
      ],
      "name": "racuni",
      "outputs": [
        {
          "name": "id",
          "type": "uint256"
        },
        {
          "name": "osobaId",
          "type": "uint256"
        },
        {
          "name": "adresa",
          "type": "address"
        },
        {
          "name": "nickname",
          "type": "string"
        },
        {
          "name": "stanjeRacuna",
          "type": "uint256"
        }
      ],
      "payable": false,
      "stateMutability": "view",
      "type": "function",
      "signature": "0xc95ffef6"
    },
    {
      "inputs": [],
      "payable": false,
      "stateMutability": "nonpayable",
      "type": "constructor",
      "signature": "constructor"
    },
    {
      "anonymous": false,
      "inputs": [
        {
          "indexed": true,
          "name": "_posiljatelj",
          "type": "uint256"
        },
        {
          "indexed": true,
          "name": "_primatelj",
          "type": "uint256"
        },
        {
          "indexed": true,
          "name": "_iznos",
          "type": "uint256"
        }
      ],
      "name": "transakcijaEvent",
      "type": "event",
      "signature": "0x4b280acbe0c049e6231d549416a698d0ce2e0af9434732a8517fe60d2e127f4f"
    },
    {
      "constant": false,
      "inputs": [
        {
          "name": "_dateTime",
          "type": "string"
        },
        {
          "name": "_posiljatelj",
          "type": "uint256"
        },
        {
          "name": "_primatelj",
          "type": "uint256"
        },
        {
          "name": "_iznos",
          "type": "uint256"
        }
      ],
      "name": "addTransakcija",
      "outputs": [],
      "payable": false,
      "stateMutability": "nonpayable",
      "type": "function",
      "signature": "0x84a60275"
    },
    {
      "constant": true,
      "inputs": [
        {
          "name": "_osobaId",
          "type": "uint256"
        }
      ],
      "name": "getOsoba",
      "outputs": [
        {
          "name": "",
          "type": "string"
        }
      ],
      "payable": false,
      "stateMutability": "view",
      "type": "function",
      "signature": "0xf74782c5"
    },
    {
      "constant": true,
      "inputs": [
        {
          "name": "_racunId",
          "type": "uint256"
        }
      ],
      "name": "getNickname",
      "outputs": [
        {
          "name": "",
          "type": "string"
        }
      ],
      "payable": false,
      "stateMutability": "view",
      "type": "function",
      "signature": "0x34c2b620"
    },
    {
      "constant": true,
      "inputs": [
        {
          "name": "_racunId",
          "type": "uint256"
        }
      ],
      "name": "getStanje",
      "outputs": [
        {
          "name": "",
          "type": "uint256"
        }
      ],
      "payable": false,
      "stateMutability": "view",
      "type": "function",
      "signature": "0xbbc95e5b"
    }
  ],
  "bytecode": "0x60806040523480156200001157600080fd5b50620000616040805190810160405280600581526020017f416c696365000000000000000000000000000000000000000000000000000000815250620002b4640100000000026401000000009004565b620000c760016040805190810160405280600781526020017f54656b75c487690000000000000000000000000000000000000000000000000081525073b2d93e41e5b4240516d96ccaeb5e05fd10d5b56f62000320640100000000026401000000009004565b6200012d60016040805190810160405280600881526020017fc5a07465646e6a610000000000000000000000000000000000000000000000008152507369ba6e98beec3da68465fb0f70ad1e44c1ad23ca62000320640100000000026401000000009004565b6200019360016040805190810160405280600681526020017f496e76657374000000000000000000000000000000000000000000000000000081525073b13a444b2bd3be2bb3563cab4a5c37f56e1de41662000320640100000000026401000000009004565b620001e26040805190810160405280600381526020017f426f620000000000000000000000000000000000000000000000000000000000815250620002b4640100000000026401000000009004565b6200024860026040805190810160405280600781526020017f54656b75c4876900000000000000000000000000000000000000000000000000815250733f8f1261022715e235de819303782993ba706ceb62000320640100000000026401000000009004565b620002ae60026040805190810160405280600881526020017fc5a07465646e6a610000000000000000000000000000000000000000000000008152507354175b636f434a5af208ad817cbd110caa36d50a62000320640100000000026401000000009004565b620004c3565b600360008154809291906001019190505550604080519081016040528060035481526020018281525060008060035481526020019081526020016000206000820151816000015560208201518160010190805190602001906200031992919062000414565b5090505050565b60046000815480929190600101919050555060a06040519081016040528060045481526020018481526020018273ffffffffffffffffffffffffffffffffffffffff1681526020018381526020016064815250600160006004548152602001908152602001600020600082015181600001556020820151816001015560408201518160020160006101000a81548173ffffffffffffffffffffffffffffffffffffffff021916908373ffffffffffffffffffffffffffffffffffffffff16021790555060608201518160030190805190602001906200040192919062000414565b5060808201518160040155905050505050565b828054600181600116156101000203166002900490600052602060002090601f016020900481019282601f106200045757805160ff191683800117855562000488565b8280016001018555821562000488579182015b82811115620004875782518255916020019190600101906200046a565b5b5090506200049791906200049b565b5090565b620004c091905b80821115620004bc576000816000905550600101620004a2565b5090565b90565b610e7a80620004d36000396000f3fe6080604052600436106100a4576000357c0100000000000000000000000000000000000000000000000000000000900463ffffffff16806316b3000b146100a957806334c2b620146101645780633b3d4a2e146102185780634d8239751461034057806384a602751461036b5780638c81c97914610451578063b284e35d1461047c578063bbc95e5b146104a7578063c95ffef6146104f6578063f74782c5146105f2575b600080fd5b3480156100b557600080fd5b506100e2600480360360208110156100cc57600080fd5b81019080803590602001909291905050506106a6565b6040518083815260200180602001828103825283818151815260200191508051906020019080838360005b8381101561012857808201518184015260208101905061010d565b50505050905090810190601f1680156101555780820380516001836020036101000a031916815260200191505b50935050505060405180910390f35b34801561017057600080fd5b5061019d6004803603602081101561018757600080fd5b8101908080359060200190929190505050610762565b6040518080602001828103825283818151815260200191508051906020019080838360005b838110156101dd5780820151818401526020810190506101c2565b50505050905090810190601f16801561020a5780820380516001836020036101000a031916815260200191505b509250505060405180910390f35b34801561022457600080fd5b506102516004803603602081101561023b57600080fd5b810190808035906020019092919050505061081a565b60405180868152602001806020018573ffffffffffffffffffffffffffffffffffffffff1673ffffffffffffffffffffffffffffffffffffffff1681526020018473ffffffffffffffffffffffffffffffffffffffff1673ffffffffffffffffffffffffffffffffffffffff168152602001838152602001828103825286818151815260200191508051906020019080838360005b838110156103015780820151818401526020810190506102e6565b50505050905090810190601f16801561032e5780820380516001836020036101000a031916815260200191505b50965050505050505060405180910390f35b34801561034c57600080fd5b50610355610928565b6040518082815260200191505060405180910390f35b34801561037757600080fd5b5061044f6004803603608081101561038e57600080fd5b81019080803590602001906401000000008111156103ab57600080fd5b8201836020820111156103bd57600080fd5b803590602001918460018302840111640100000000831117156103df57600080fd5b91908080601f016020809104026020016040519081016040528093929190818152602001838380828437600081840152601f19601f82011690508083019250505050505050919291929080359060200190929190803590602001909291908035906020019092919050505061092e565b005b34801561045d57600080fd5b50610466610b63565b6040518082815260200191505060405180910390f35b34801561048857600080fd5b50610491610b69565b6040518082815260200191505060405180910390f35b3480156104b357600080fd5b506104e0600480360360208110156104ca57600080fd5b8101908080359060200190929190505050610b6f565b6040518082815260200191505060405180910390f35b34801561050257600080fd5b5061052f6004803603602081101561051957600080fd5b8101908080359060200190929190505050610b8f565b604051808681526020018581526020018473ffffffffffffffffffffffffffffffffffffffff1673ffffffffffffffffffffffffffffffffffffffff16815260200180602001838152602001828103825284818151815260200191508051906020019080838360005b838110156105b3578082015181840152602081019050610598565b50505050905090810190601f1680156105e05780820380516001836020036101000a031916815260200191505b50965050505050505060405180910390f35b3480156105fe57600080fd5b5061062b6004803603602081101561061557600080fd5b8101908080359060200190929190505050610c7d565b6040518080602001828103825283818151815260200191508051906020019080838360005b8381101561066b578082015181840152602081019050610650565b50505050905090810190601f1680156106985780820380516001836020036101000a031916815260200191505b509250505060405180910390f35b6000602052806000526040600020600091509050806000015490806001018054600181600116156101000203166002900480601f0160208091040260200160405190810160405280929190818152602001828054600181600116156101000203166002900480156107585780601f1061072d57610100808354040283529160200191610758565b820191906000526020600020905b81548152906001019060200180831161073b57829003601f168201915b5050505050905082565b6060600160008381526020019081526020016000206003018054600181600116156101000203166002900480601f01602080910402602001604051908101604052809291908181526020018280546001816001161561010002031660029004801561080e5780601f106107e35761010080835404028352916020019161080e565b820191906000526020600020905b8154815290600101906020018083116107f157829003601f168201915b50505050509050919050565b6002602052806000526040600020600091509050806000015490806001018054600181600116156101000203166002900480601f0160208091040260200160405190810160405280929190818152602001828054600181600116156101000203166002900480156108cc5780601f106108a1576101008083540402835291602001916108cc565b820191906000526020600020905b8154815290600101906020018083116108af57829003601f168201915b5050505050908060020160009054906101000a900473ffffffffffffffffffffffffffffffffffffffff16908060030160009054906101000a900473ffffffffffffffffffffffffffffffffffffffff16908060040154905085565b60045481565b60056000815480929190600101919050555060a06040519081016040528060055481526020018581526020016001600086815260200190815260200160002060020160009054906101000a900473ffffffffffffffffffffffffffffffffffffffff1673ffffffffffffffffffffffffffffffffffffffff1681526020016001600085815260200190815260200160002060020160009054906101000a900473ffffffffffffffffffffffffffffffffffffffff1673ffffffffffffffffffffffffffffffffffffffff16815260200182815250600260006005548152602001908152602001600020600082015181600001556020820151816001019080519060200190610a3d929190610da9565b5060408201518160020160006101000a81548173ffffffffffffffffffffffffffffffffffffffff021916908373ffffffffffffffffffffffffffffffffffffffff16021790555060608201518160030160006101000a81548173ffffffffffffffffffffffffffffffffffffffff021916908373ffffffffffffffffffffffffffffffffffffffff1602179055506080820151816004015590505060016000838152602001908152602001600020600101546001600085815260200190815260200160002060010154141515610b1a57610b19836001610d34565b5b610b248382610d34565b610b2e8282610d81565b8082847f4b280acbe0c049e6231d549416a698d0ce2e0af9434732a8517fe60d2e127f4f60405160405180910390a450505050565b60035481565b60055481565b600060016000838152602001908152602001600020600401549050919050565b60016020528060005260406000206000915090508060000154908060010154908060020160009054906101000a900473ffffffffffffffffffffffffffffffffffffffff1690806003018054600181600116156101000203166002900480601f016020809104026020016040519081016040528092919081815260200182805460018160011615610100020316600290048015610c6d5780601f10610c4257610100808354040283529160200191610c6d565b820191906000526020600020905b815481529060010190602001808311610c5057829003601f168201915b5050505050908060040154905085565b60606000808381526020019081526020016000206001018054600181600116156101000203166002900480601f016020809104026020016040519081016040528092919081815260200182805460018160011615610100020316600290048015610d285780601f10610cfd57610100808354040283529160200191610d28565b820191906000526020600020905b815481529060010190602001808311610d0b57829003601f168201915b50505050509050919050565b60016000838152602001908152602001600020600401548111151515610d5957600080fd5b8060016000848152602001908152602001600020600401600082825403925050819055505050565b8060016000848152602001908152602001600020600401600082825401925050819055505050565b828054600181600116156101000203166002900490600052602060002090601f016020900481019282601f10610dea57805160ff1916838001178555610e18565b82800160010185558215610e18579182015b82811115610e17578251825591602001919060010190610dfc565b5b509050610e259190610e29565b5090565b610e4b91905b80821115610e47576000816000905550600101610e2f565b5090565b9056fea165627a7a723058206bec295879f40167c109102d6f042ef2610f88ecbec2648785f7bb64ebafdbce0029",
  "source": "pragma solidity ^0.5.0;\r\n\r\ncontract Ugovor {\r\n\r\n    struct Osoba {\r\n        uint id;\r\n        string ime;\r\n    }\r\n\r\n    struct Racun {\r\n        uint id;\r\n        uint osobaId;\r\n        address adresa;\r\n        string nickname;\r\n        uint stanjeRacuna;\r\n    }\r\n\r\n    struct Transakcija {\r\n        uint id;\r\n        string dateTime;\r\n        address posiljatelj;\r\n        address primatelj;\r\n        uint iznos;\r\n    }\r\n\r\n    mapping(uint => Osoba) public osobe;\r\n    mapping(uint => Racun) public racuni;\r\n    mapping(uint => Transakcija) public transakcije;\r\n\r\n    uint public osobeCount;\r\n    uint public racuniCount;\r\n    uint public transakcijeCount;\r\n\r\n    event transakcijaEvent (\r\n        uint indexed _posiljatelj,\r\n        uint indexed _primatelj,\r\n        uint indexed _iznos\r\n    );\r\n\r\n    constructor() public {\r\n        addOsoba(\"Alice\");\r\n        addRacun(1, \"Tekući\", 0xb2D93E41E5b4240516D96ccAeB5e05Fd10d5B56f);\r\n        addRacun(1, \"Štednja\", 0x69BA6e98beeC3da68465FB0F70ad1E44c1aD23ca);\r\n        addRacun(1, \"Invest\", 0xb13a444B2bD3be2bB3563CAb4a5C37f56e1De416);\r\n\r\n        addOsoba(\"Bob\");\r\n        addRacun(2, \"Tekući\", 0x3f8f1261022715E235de819303782993bA706CeB);\r\n        addRacun(2, \"Štednja\", 0x54175B636f434A5Af208Ad817CbD110caa36D50a);\r\n    }\r\n\r\n    function addOsoba(string memory _ime) private {\r\n        osobeCount++;\r\n        osobe[osobeCount] = Osoba(osobeCount, _ime);\r\n    }\r\n\r\n    function addRacun(uint _osobaId, string memory _nickname, address _adresa) private {\r\n        racuniCount++;\r\n        racuni[racuniCount] = Racun(racuniCount, _osobaId, _adresa, _nickname, 100);\r\n    }\r\n\r\n    function addTransakcija(string memory _dateTime, uint _posiljatelj, uint _primatelj, uint _iznos) public {\r\n        transakcijeCount++;\r\n        transakcije[transakcijeCount] = Transakcija(transakcijeCount, _dateTime, racuni[_posiljatelj].adresa, racuni[_primatelj].adresa, _iznos);\r\n\r\n        if(racuni[_posiljatelj].osobaId != racuni[_primatelj].osobaId)\r\n            updatePosiljatelj(_posiljatelj, 1);\r\n\r\n        updatePosiljatelj(_posiljatelj, _iznos);\r\n        updatePrimatelj(_primatelj, _iznos);\r\n\r\n        emit transakcijaEvent(_posiljatelj, _primatelj, _iznos);\r\n    }\r\n\r\n    function updatePosiljatelj(uint _racunId, uint _iznos) private {\r\n        require(_iznos <= racuni[_racunId].stanjeRacuna);\r\n        racuni[_racunId].stanjeRacuna -= _iznos;\r\n    }\r\n\r\n    function updatePrimatelj(uint _racunId, uint _iznos) private {\r\n        racuni[_racunId].stanjeRacuna += _iznos;\r\n    }\r\n\r\n    function getOsoba(uint _osobaId) view public returns (string memory) {\r\n        return osobe[_osobaId].ime;\r\n    }\r\n\r\n    function getNickname(uint _racunId) view public returns (string memory) {\r\n        return racuni[_racunId].nickname;\r\n    }\r\n\r\n    function getStanje(uint _racunId) view public returns (uint) {\r\n        return racuni[_racunId].stanjeRacuna;\r\n    }\r\n\r\n}\r\n",
  "sourcePath": "C:/Users/petra/Documents/ugovor/contracts/Ugovor.sol",
  "compiler": {
    "name": "solc",
    "version": "0.5.0+commit.1d4f565a.Emscripten.clang"
  },
  "schemaVersion": "3.0.1",
  "updatedAt": "2019-02-17T18:32:11.219Z",
  "devdoc": {
    "methods": {}
  },
  "userdoc": {
    "methods": {}
  }
}